{
  "address": "0xe7f1725E7734CE288F8367e1Bb143E90bb3F0512",
  "abi": [
    {
      "inputs": [
        {
          "internalType": "address",
          "name": "priceFeedAddress",
          "type": "address"
        }
      ],
      "stateMutability": "nonpayable",
      "type": "constructor"
    },
    {
      "inputs": [],
      "name": "FundMe_NotEnoughETH",
      "type": "error"
    },
    {
      "inputs": [],
      "name": "FundMe__NotOwner",
      "type": "error"
    },
    {
      "stateMutability": "payable",
      "type": "fallback"
    },
    {
      "inputs": [],
      "name": "MINIMUM_USD",
      "outputs": [
        {
          "internalType": "uint256",
          "name": "",
          "type": "uint256"
        }
      ],
      "stateMutability": "view",
      "type": "function"
    },
    {
      "inputs": [],
      "name": "fund",
      "outputs": [],
      "stateMutability": "payable",
      "type": "function"
    },
    {
      "inputs": [
        {
          "internalType": "address",
          "name": "_addr",
          "type": "address"
        }
      ],
      "name": "getAmountFundedByAddress",
      "outputs": [
        {
          "internalType": "uint256",
          "name": "",
          "type": "uint256"
        }
      ],
      "stateMutability": "view",
      "type": "function"
    },
    {
      "inputs": [
        {
          "internalType": "uint256",
          "name": "index",
          "type": "uint256"
        }
      ],
      "name": "getFunder",
      "outputs": [
        {
          "internalType": "address",
          "name": "",
          "type": "address"
        }
      ],
      "stateMutability": "view",
      "type": "function"
    },
    {
      "inputs": [],
      "name": "getOwner",
      "outputs": [
        {
          "internalType": "address",
          "name": "",
          "type": "address"
        }
      ],
      "stateMutability": "view",
      "type": "function"
    },
    {
      "inputs": [],
      "name": "getsPriceFeed",
      "outputs": [
        {
          "internalType": "contract AggregatorV3Interface",
          "name": "",
          "type": "address"
        }
      ],
      "stateMutability": "view",
      "type": "function"
    },
    {
      "inputs": [],
      "name": "withdraw",
      "outputs": [],
      "stateMutability": "payable",
      "type": "function"
    },
    {
      "stateMutability": "payable",
      "type": "receive"
    }
  ],
  "transactionHash": "0xa94eb55fdb29218745a3ba61a7aa08ec5c9af89cb1ca99a240c226c307a4d889",
  "args": [
    "0x5FbDB2315678afecb367f032d93F642f64180aa3"
  ],
  "numDeployments": 1,
  "solcInputHash": "15a11da4fb52ff5faf15d53aa8785f95",
  "bytecode": "0x60a06040523480156200001157600080fd5b506040516200139b3803806200139b83398181016040528101906200003791906200023b565b620000836040518060400160405280601881526020017f707269636546656564416464726573732069733a202573200000000000000000815250826200010260201b620006601760201c565b3373ffffffffffffffffffffffffffffffffffffffff1660808173ffffffffffffffffffffffffffffffffffffffff1660601b8152505080600260006101000a81548173ffffffffffffffffffffffffffffffffffffffff021916908373ffffffffffffffffffffffffffffffffffffffff1602179055505062000356565b620001a482826040516024016200011b92919062000322565b6040516020818303038152906040527f319af333000000000000000000000000000000000000000000000000000000007bffffffffffffffffffffffffffffffffffffffffffffffffffffffff19166020820180517bffffffffffffffffffffffffffffffffffffffffffffffffffffffff8381831617835250505050620001a860201b60201c565b5050565b60008151905060006a636f6e736f6c652e6c6f679050602083016000808483855afa5050505050565b600080fd5b600073ffffffffffffffffffffffffffffffffffffffff82169050919050565b60006200020382620001d6565b9050919050565b6200021581620001f6565b81146200022157600080fd5b50565b60008151905062000235816200020a565b92915050565b600060208284031215620002545762000253620001d1565b5b6000620002648482850162000224565b91505092915050565b600081519050919050565b600082825260208201905092915050565b60005b83811015620002a95780820151818401526020810190506200028c565b83811115620002b9576000848401525b50505050565b6000601f19601f8301169050919050565b6000620002dd826200026d565b620002e9818562000278565b9350620002fb81856020860162000289565b6200030681620002bf565b840191505092915050565b6200031c81620001f6565b82525050565b600060408201905081810360008301526200033e8185620002d0565b90506200034f602083018462000311565b9392505050565b60805160601c61101f6200037c600039600081816102cf01526105ac015261101f6000f3fe6080604052600436106100745760003560e01c8063893d20e81161004e578063893d20e8146100ed5780639b23b0c914610118578063b60d428814610155578063d7b4750c1461015f57610083565b80633ccfd60b1461008d5780633edeb84f146100975780636b69a592146100c257610083565b366100835761008161019c565b005b61008b61019c565b005b6100956102cd565b005b3480156100a357600080fd5b506100ac610571565b6040516100b99190610927565b60405180910390f35b3480156100ce57600080fd5b506100d761059b565b6040516100e4919061095b565b60405180910390f35b3480156100f957600080fd5b506101026105a8565b60405161010f9190610997565b60405180910390f35b34801561012457600080fd5b5061013f600480360381019061013a91906109e3565b6105d0565b60405161014c919061095b565b60405180910390f35b61015d61019c565b005b34801561016b57600080fd5b5061018660048036038101906101819190610a3c565b610618565b6040516101939190610997565b60405180910390f35b6802b5e3af16b18800006101db600260009054906101000a900473ffffffffffffffffffffffffffffffffffffffff16346106fc90919063ffffffff16565b1015610213576040517fd6ba88ee00000000000000000000000000000000000000000000000000000000815260040160405180910390fd5b346000803373ffffffffffffffffffffffffffffffffffffffff1673ffffffffffffffffffffffffffffffffffffffff16815260200190815260200160002060008282546102619190610a98565b925050819055506001339080600181540180825580915050600190039060005260206000200160009091909190916101000a81548173ffffffffffffffffffffffffffffffffffffffff021916908373ffffffffffffffffffffffffffffffffffffffff160217905550565b7f000000000000000000000000000000000000000000000000000000000000000073ffffffffffffffffffffffffffffffffffffffff163373ffffffffffffffffffffffffffffffffffffffff1614610352576040517f579610db00000000000000000000000000000000000000000000000000000000815260040160405180910390fd5b600060018054806020026020016040519081016040528092919081815260200182805480156103d657602002820191906000526020600020905b8160009054906101000a900473ffffffffffffffffffffffffffffffffffffffff1673ffffffffffffffffffffffffffffffffffffffff168152602001906001019080831161038c575b5050505050905060005b81518110156104605760008282815181106103fe576103fd610aee565b5b6020026020010151905060008060008373ffffffffffffffffffffffffffffffffffffffff1673ffffffffffffffffffffffffffffffffffffffff1681526020019081526020016000208190555050808061045890610b1d565b9150506103e0565b50600067ffffffffffffffff81111561047c5761047b610b66565b5b6040519080825280602002602001820160405280156104aa5781602001602082028036833780820191505090505b50600190805190602001906104c0929190610801565b5060003373ffffffffffffffffffffffffffffffffffffffff16476040516104e790610bc6565b60006040518083038185875af1925050503d8060008114610524576040519150601f19603f3d011682016040523d82523d6000602084013e610529565b606091505b505090508061056d576040517f08c379a000000000000000000000000000000000000000000000000000000000815260040161056490610c38565b60405180910390fd5b5050565b6000600260009054906101000a900473ffffffffffffffffffffffffffffffffffffffff16905090565b6802b5e3af16b188000081565b60007f0000000000000000000000000000000000000000000000000000000000000000905090565b60008060008373ffffffffffffffffffffffffffffffffffffffff1673ffffffffffffffffffffffffffffffffffffffff168152602001908152602001600020549050919050565b60006001828154811061062e5761062d610aee565b5b9060005260206000200160009054906101000a900473ffffffffffffffffffffffffffffffffffffffff169050919050565b6106f88282604051602401610676929190610ce0565b6040516020818303038152906040527f319af333000000000000000000000000000000000000000000000000000000007bffffffffffffffffffffffffffffffffffffffffffffffffffffffff19166020820180517bffffffffffffffffffffffffffffffffffffffffffffffffffffffff8381831617835250505050610738565b5050565b60008061070883610761565b90506000670de0b6b3a764000085836107219190610d10565b61072b9190610d99565b9050809250505092915050565b60008151905060006a636f6e736f6c652e6c6f679050602083016000808483855afa5050505050565b6000808273ffffffffffffffffffffffffffffffffffffffff1663feaf968c6040518163ffffffff1660e01b815260040160a06040518083038186803b1580156107aa57600080fd5b505afa1580156107be573d6000803e3d6000fd5b505050506040513d601f19601f820116820180604052508101906107e29190610e57565b5050509150506402540be400816107f99190610ed2565b915050919050565b82805482825590600052602060002090810192821561087a579160200282015b828111156108795782518260006101000a81548173ffffffffffffffffffffffffffffffffffffffff021916908373ffffffffffffffffffffffffffffffffffffffff16021790555091602001919060010190610821565b5b509050610887919061088b565b5090565b5b808211156108a457600081600090555060010161088c565b5090565b600073ffffffffffffffffffffffffffffffffffffffff82169050919050565b6000819050919050565b60006108ed6108e86108e3846108a8565b6108c8565b6108a8565b9050919050565b60006108ff826108d2565b9050919050565b6000610911826108f4565b9050919050565b61092181610906565b82525050565b600060208201905061093c6000830184610918565b92915050565b6000819050919050565b61095581610942565b82525050565b6000602082019050610970600083018461094c565b92915050565b6000610981826108a8565b9050919050565b61099181610976565b82525050565b60006020820190506109ac6000830184610988565b92915050565b600080fd5b6109c081610976565b81146109cb57600080fd5b50565b6000813590506109dd816109b7565b92915050565b6000602082840312156109f9576109f86109b2565b5b6000610a07848285016109ce565b91505092915050565b610a1981610942565b8114610a2457600080fd5b50565b600081359050610a3681610a10565b92915050565b600060208284031215610a5257610a516109b2565b5b6000610a6084828501610a27565b91505092915050565b7f4e487b7100000000000000000000000000000000000000000000000000000000600052601160045260246000fd5b6000610aa382610942565b9150610aae83610942565b9250827fffffffffffffffffffffffffffffffffffffffffffffffffffffffffffffffff03821115610ae357610ae2610a69565b5b828201905092915050565b7f4e487b7100000000000000000000000000000000000000000000000000000000600052603260045260246000fd5b6000610b2882610942565b91507fffffffffffffffffffffffffffffffffffffffffffffffffffffffffffffffff821415610b5b57610b5a610a69565b5b600182019050919050565b7f4e487b7100000000000000000000000000000000000000000000000000000000600052604160045260246000fd5b600081905092915050565b50565b6000610bb0600083610b95565b9150610bbb82610ba0565b600082019050919050565b6000610bd182610ba3565b9150819050919050565b600082825260208201905092915050565b7f43616c6c206661696c6564000000000000000000000000000000000000000000600082015250565b6000610c22600b83610bdb565b9150610c2d82610bec565b602082019050919050565b60006020820190508181036000830152610c5181610c15565b9050919050565b600081519050919050565b60005b83811015610c81578082015181840152602081019050610c66565b83811115610c90576000848401525b50505050565b6000601f19601f8301169050919050565b6000610cb282610c58565b610cbc8185610bdb565b9350610ccc818560208601610c63565b610cd581610c96565b840191505092915050565b60006040820190508181036000830152610cfa8185610ca7565b9050610d096020830184610988565b9392505050565b6000610d1b82610942565b9150610d2683610942565b9250817fffffffffffffffffffffffffffffffffffffffffffffffffffffffffffffffff0483118215151615610d5f57610d5e610a69565b5b828202905092915050565b7f4e487b7100000000000000000000000000000000000000000000000000000000600052601260045260246000fd5b6000610da482610942565b9150610daf83610942565b925082610dbf57610dbe610d6a565b5b828204905092915050565b600069ffffffffffffffffffff82169050919050565b610de981610dca565b8114610df457600080fd5b50565b600081519050610e0681610de0565b92915050565b6000819050919050565b610e1f81610e0c565b8114610e2a57600080fd5b50565b600081519050610e3c81610e16565b92915050565b600081519050610e5181610a10565b92915050565b600080600080600060a08688031215610e7357610e726109b2565b5b6000610e8188828901610df7565b9550506020610e9288828901610e2d565b9450506040610ea388828901610e42565b9350506060610eb488828901610e42565b9250506080610ec588828901610df7565b9150509295509295909350565b6000610edd82610e0c565b9150610ee883610e0c565b9250827f7fffffffffffffffffffffffffffffffffffffffffffffffffffffffffffffff0482116000841360008413161615610f2757610f26610a69565b5b817f80000000000000000000000000000000000000000000000000000000000000000583126000841260008413161615610f6457610f63610a69565b5b827f80000000000000000000000000000000000000000000000000000000000000000582126000841360008412161615610fa157610fa0610a69565b5b827f7fffffffffffffffffffffffffffffffffffffffffffffffffffffffffffffff0582126000841260008412161615610fde57610fdd610a69565b5b82820290509291505056fea264697066735822122065ab41bb6dd8ac9007375b4b464a217312e430485acc75a1a7bddd07bd78b36d64736f6c63430008080033",
  "devdoc": {
    "author": "Dmitrii Belii",
    "kind": "dev",
    "methods": {},
    "title": "A contract for crowd funding",
    "version": 1
  },
  "userdoc": {
    "kind": "user",
    "methods": {},
    "notice": "thes contract demo and bases for fast dev build",
    "version": 1
  },
  "storageLayout": {
    "storage": [
      {
        "astId": 62,
        "contract": "contracts/FundMe.sol:FundMe",
        "label": "s_addressToAmountFunded",
        "offset": 0,
        "slot": "0",
        "type": "t_mapping(t_address,t_uint256)"
      },
      {
        "astId": 65,
        "contract": "contracts/FundMe.sol:FundMe",
        "label": "s_funders",
        "offset": 0,
        "slot": "1",
        "type": "t_array(t_address)dyn_storage"
      },
      {
        "astId": 77,
        "contract": "contracts/FundMe.sol:FundMe",
        "label": "s_priceFeed",
        "offset": 0,
        "slot": "2",
        "type": "t_contract(AggregatorV3Interface)45"
      }
    ],
    "types": {
      "t_address": {
        "encoding": "inplace",
        "label": "address",
        "numberOfBytes": "20"
      },
      "t_array(t_address)dyn_storage": {
        "base": "t_address",
        "encoding": "dynamic_array",
        "label": "address[]",
        "numberOfBytes": "32"
      },
      "t_contract(AggregatorV3Interface)45": {
        "encoding": "inplace",
        "label": "contract AggregatorV3Interface",
        "numberOfBytes": "20"
      },
      "t_mapping(t_address,t_uint256)": {
        "encoding": "mapping",
        "key": "t_address",
        "label": "mapping(address => uint256)",
        "numberOfBytes": "32",
        "value": "t_uint256"
      },
      "t_uint256": {
        "encoding": "inplace",
        "label": "uint256",
        "numberOfBytes": "32"
      }
    }
  }
}